:100000000C9436000C945E000C945E000C945E0020
:100010000C945E000C945E000C945E000C945E00E8
:100020000C945E000C945E000C945E000C945E00D8
:100030000C945E000C945E000C945E000C945E00C8
:100040000C945E000C945E000C945E000C945E00B8
:100050000C945E000C945E000C945E000C945E00A8
:100060000C945E000C945E00F505040611241FBE7E
:10007000CFEFD8E0DEBFCDBF11E0A0E0B1E0EEEA07
:10008000F1E102C005900D92AE33B107D9F721E03E
:10009000AEE3B1E001C01D92A435B207E1F710E074
:1000A000C5E3D0E004C02197FE010E946806C43376
:1000B000D107C9F70E945C040C94CA080C94000094
:1000C000FC0117821682138212821582148208950F
:1000D00080E090E00895FC01138212821582148260
:1000E00086E391E091838083178216820895CF93EF
:1000F000DF93EC018E819F81892B21F08A819B8186
:100100000E941507E881F9810480F581E02DCE0178
:10011000DF91CF91099426E331E0FC013183208304
:100120000C947700CF93DF93EC010E948B00CE01FB
:10013000DF91CF910C9408060F931F93CF93DF9319
:10014000EC018A010E9471021F830E83DF91CF911F
:100150001F910F910895AF92BF92CF92DF92EF92CD
:10016000FF920F931F93CF93DF931F92CDB7DEB70C
:100170007C015B01DC01ED91FC910680F781E02DB3
:1001800049830995A80EB91EF70186819781498197
:100190008A159B0508F057C0892B19F0C280D380BF
:1001A00002C0C12CD12CC501A0E0B0E00197A1098B
:1001B000B1098C0131F00E9429060FE110E0081B03
:1001C000190B20E030E00F3111052105310518F041
:1001D0000FEF1FEF980141110AC00F5F1F4F81E021
:1001E00090E05C0102C0AA0CBB1C0A95E2F7B501C5
:1001F000C6010E949E07009731F1D7011296ED913A
:10020000FC91139714964D915C911597CD2811F49C
:10021000309741F4BC01C7010E947102F701B78217
:10022000A68211C0BA016F5F7F4F95016A157B05E9
:1002300008F49B01280F391FDC01A217B30751F303
:1002400061916D93FACF0F90DF91CF911F910F9134
:10025000FF90EF90DF90CF90BF90AF900895CF9236
:10026000DF92EF92FF920F931F93CF93DF931F9232
:10027000CDB7DEB76C018B01DC011696ED90FC90DA
:100280001797ED91FC910680F781E02D4983099540
:10029000800F911F4981E816F90620F4B801C601C4
:1002A0000E94AB00F601158304830F90DF91CF917C
:1002B0001F910F91FF90EF90DF90CF900895FC0178
:1002C000138212821582148226E331E03183208367
:1002D0001782168241E00C942F01EF92FF920F9348
:1002E0001F93CF93DF938C017B01EA0141E0BE01B4
:1002F0000E942F01D8011296ED91FC911397D7011E
:10030000CE0FDF1FEC17FD0719F08D918193FACF07
:10031000DF91CF911F910F91FF90EF900895FC0115
:10032000138212821582148226E331E03183208306
:10033000178216820C946D01FC01138212821582C1
:10034000148226E331E03183208317821682FB0179
:1003500044815581628173810C946D01EF92FF920B
:100360000F931F93CF93DF93EC010A811B81EC80E5
:10037000FD808E819F81892B39F4E881F981048089
:10038000F581E02DCE010995A701B801CE01DF91DD
:10039000CF911F910F91FF90EF900C946D01FC0194
:1003A000138212821582148226E331E03183208386
:1003B00017821682FB0144815581628173810C94FE
:1003C0006D01FC01138212821582148226E331E052
:1003D0003183208317821682FB014481558162811B
:1003E00073810C946D01CF93DF93FC0126813781DB
:1003F000232B91F0EC0164817581828193810E94AD
:100400009E072C813D81009719F42115310521F4B7
:100410003F832E839B838A83DF91CF910895EF9250
:10042000FF920F931F93CF93DF93EC017A018A81A0
:100430009B818B01081B190B6C817D81640F751FDB
:1004400040E0CE010E942F018A819B812C813D8159
:10045000AC01420F531FBA016E197F09800F911F23
:100460000E94D2028A819B81800F911FDF91CF91E0
:100470001F910F91FF90EF900895EF92FF920F93CD
:100480001F93CF93DF938C017A01FC0182819381CA
:10049000EB01C81BD90B64817581641B750B40E0AF
:1004A000C8010E94AB00F80142815381C40FD51FDF
:1004B00084819581480F591FBE016E0D7F1DCE01AD
:1004C0000E94D202F801848195818E199F0995833B
:1004D0008483CE01DF91CF911F910F91FF90EF9018
:1004E0000895EF92FF920F931F93CF93DF936115BF
:1004F000710519F44115510569F48A017B01EC017C
:10050000E881F9810480F581E02D0995FB82EA827A
:100510001D830C83DF91CF911F910F91FF90EF907E
:100520000895FC0184819581A0E0B0E00496A11DAE
:10053000B11D0895FC01DB0114964D915C91159756
:10054000848195814817590771F412968D919C9179
:100550001397628173818617970739F00E946408A8
:1005600021E0892B19F020E001C021E0822F0895BD
:10057000242F30E0AB01B9010C948C086150710953
:1005800028F0FC0141935193CF01F8CF08956150B9
:10059000710938F0FC012193319341935193CF01BC
:1005A000F6CF08954F925F926F927F928F929F92B3
:1005B000AF92BF92CF92DF92EF92FF920F931F9371
:1005C000CF93DF93CDB7DEB76C015B013A014DB637
:1005D0005EB68B01081B190B7A01E61AF70AC801EF
:1005E000E016F10608F4C701009789F12DB73EB770
:1005F000281B390B0FB6F8943EBF0FBE2DBF8DB729
:100600009EB701964C01E016F10680F4A701B501F2
:10061000C4010E947108A801B601C301801B910B9F
:100620000E947A08A701B401C6010FC0A801B60153
:10063000C4010E947108A701B501C6010E9471089A
:10064000A801B401C6018E0D9F1D0E9471080FB64E
:10065000F8945EBE0FBE4DBEDF91CF911F910F91FA
:10066000FF90EF90DF90CF90BF90AF909F908F90D2
:100670007F906F905F904F9008950F931F93643217
:1006800071058105910560F0DC01CB018036910593
:10069000A105B10548F08FE590E0A0E0B0E004C00E
:1006A00084E290E0A0E0B0E040914C0120914B0149
:1006B00030E0305250E8459F200D311D1124220FAB
:1006C000331F8901330F220B330B8497A109B10922
:1006D0005DE0880F991FAA1FBB1F5A95D1F7A9018A
:1006E0009801280F391F4A1F5B1FAFEFBFE00E9420
:1006F0003B0620E030E847E050E00E940A06211562
:1007000080E138074105510544F4DA01C90157FF7A
:1007100006C080E090E0DC0102C08FEF9FE01F91F7
:100720000F910895CF93DF931F92CDB7DEB7698302
:10073000598145B121E030E002C0220F331F5A95A4
:10074000E2F720953095242325B990639EBD0DB422
:1007500007FEFDCF9EB58EBD0DB407FEFDCF8EB555
:10076000398125B181E090E001C0880F3A95EAF720
:10077000822B85B90F90DF91CF910895FB01808185
:1007800080934B01818180934C01609147016623E6
:1007900041F070E080E090E00E943D0362E00E9442
:1007A000920360914A01662361F080914801882399
:1007B00041F070E080E090E00E943D0367E00C941F
:1007C0009203089560934A0110924901419A2CEDD9
:1007D000260F2C3330F40E943D0367E00E94920301
:1007E0005A9A0895CF938093470110924601419AF7
:1007F0009CED980F9C33B0F4C62F682F70E080E01A
:1008000090E00E943D0362E00E94920380914801C3
:10081000811107C067E020E2C29FC00111240E943D
:1008200092035A9ACF9108950F931F93CF93DF931A
:10083000EC018B018E819F818617970718F4CE01FA
:100840000E94AB008C819D81A801481B590B57FF6A
:1008500002C040E050E02A813B8160E070E0820FFE
:10086000931F0E948C081D830C83DF91CF911F91F1
:100870000F910895CF93DF93EC0141E060E070E0C9
:100880000E94140481E0888719861A868B871C864B
:100890001D8680E48E87DF91CF910895FB018081D2
:1008A0008B3749F48181811106C08EE391E00E946B
:1008B0003A0441985A980895399A529A55985698F8
:1008C0005798209884B1886284B9229A279A2A9AE4
:1008D0002F9A8CB580658CBD62E080E090E00E942C
:1008E000920367E080E090E00E94920382E08093B0
:1008F000C0001092C5008FE18093C40080E1809316
:10090000C1008EE08093C20010924D0110924E0102
:100910008091C00087FFFCCF4091C60040934F01FB
:1009200020914D01822F90E0880F892F881F990B0D
:1009300060914E01019739F5862F90E0880F892F3D
:10094000881F990B892BF9F4842F90E0880F892F49
:10095000881F990B892BB9F489B1881F8827881FB4
:10096000880F880F39B1932F907436FD92E059B1FA
:100970002F7030E055FB552750F9850F890F90E017
:100980002817390729F060934D0140934E01C0CFDD
:10099000C3B1C17080914801C81741F08EE391E066
:1009A0000E943A04C093480141985A9820914D0101
:1009B00022952F70293048F0293049F02C3048F02A
:1009C0002F3009F4A1CF83E005C080E003C081E0AF
:1009D00001C082E090E0FC01EA5DFE4F308123130C
:1009E00093CF880F991FFC01E65DFE4F80819181B6
:1009F000DC01ED91FC910190F081E02D6EE471E05D
:100A0000099582CFCF93DF93EB0148812091480174
:100A1000809142019091430121112BC0209140010E
:100A200030914101820F931FB9018217930761F042
:100A30002F5F3F4FFB0150814513F6CF41E050E05F
:100A40008EE391E00E943D0280914201909143012A
:100A5000009709F46DC0E0914001F09141018E0FC3
:100A60009F1FFC01319769818081DF91CF910C94A8
:100A7000F20320914601211117C020914701421332
:100A800013C0009769F0E0914001F09141018E0F91
:100A90009F1FFC01319760E080810E94F2031CC01F
:100AA00081E0809346013CC020914901211122C080
:100AB00020914A0142131EC00097C1F0E09140010D
:100AC000F09141018E0F9F1FFC013197608170E012
:100AD00080E090E00E94E203809142019091430106
:100AE000019790934301809342011AC081E0809363
:100AF000490116C02091400130914101820F931F9E
:100B0000B9018217930761F02F5F3F4FFB015081BE
:100B10004513F6CF41E050E08EE391E00E943D02A4
:100B200080914601882331F080914901882311F09A
:100B300041985A98DF91CF9108950C9402051F9324
:100B4000CF93DF93EC01FB0110816C817D816F5F9E
:100B50007F4F40E00E94AB00EC81FD813196FD8328
:100B6000EC838A819B81E80FF91F319709F010838C
:100B7000DF91CF911F9108951F93CF93DF931F9221
:100B8000CDB7DEB7FB012181211103C00E94020510
:100B900027C0FB01108180914801811105C0622F9F
:100BA000812F0E94F20314C080914601882329F00E
:100BB00060E0812F0E94F20313C0809149018823D5
:100BC00039F0612F70E080E090E00E94E20308C0FD
:100BD0001983BE016F5F7F4F8EE391E00E949F05F6
:100BE0000F90DF91CF911F9108958EE391E00E94C5
:100BF0006B0041E060E870E08EE391E00E94140435
:100C00008EE391E00C943A048EE391E00C948B0017
:100C10000C941507052E97FB1EF400940E942106E4
:100C200057FD07D00E94460607FC03D04EF40C94F3
:100C3000210650954095309521953F4F4F4F5F4F7E
:100C4000089590958095709561957F4F8F4F9F4F38
:100C50000895AA27992329F4A85F982B11F480E11D
:100C60000895903118F4AD5F9295A395990FE8F728
:100C70008A2F992708950E946E06A59F900DB49F14
:100C8000900DA49F800D911D11240895A1E21A2EAC
:100C9000AA1BBB1BFD010DC0AA1FBB1FEE1FFF1F20
:100CA000A217B307E407F50720F0A21BB30BE40B70
:100CB000F50B661F771F881F991F1A9469F76095B7
:100CC0007095809590959B01AC01BD01CF01089571
:100CD000EE0FFF1F0590F491E02D0994A29FB00143
:100CE000B39FC001A39F700D811D1124911DB29F60
:100CF000700D811D1124911D08950F931F93CF93A3
:100D0000DF938230910510F482E090E0E09152018F
:100D1000F091530120E030E0A0E0B0E0309719F10D
:100D2000408151810281138148175907C8F0841707
:100D3000950769F4109731F012960C931297139659
:100D40001C9327C0009352011093530122C0211518
:100D5000310519F04217530718F49A01BD01EF014C
:100D6000DF01F801DBCF21153105F9F0281B390B24
:100D70002430310580F48A819B816115710521F051
:100D8000FB019383828304C09093530180935201AB
:100D9000FE01329644C0FE01E20FF31F819391934E
:100DA00022503109398328833AC020915001309173
:100DB0005101232B41F42091020130910301309322
:100DC0005101209350012091000130910101211522
:100DD000310541F42DB73EB7409104015091050112
:100DE000241B350BE0915001F0915101E217F307FC
:100DF000A0F42E1B3F0B2817390778F0AC014E5F8B
:100E00005F4F2417350748F04E0F5F1F5093510175
:100E1000409350018193919302C0E0E0F0E0CF0154
:100E2000DF91CF911F910F910895CF93DF9300979A
:100E300009F481C0FC01329713821282A091520101
:100E4000B0915301109781F420813181820F931F5B
:100E500020915001309151012817390751F5F09335
:100E60005101E093500167C0ED0120E030E0CE1762
:100E7000DF0740F44A815B819E0141155105F1F085
:100E8000EA01F5CFD383C28340815181840F951F3E
:100E9000C817D90759F488819981840F951F029644
:100EA000918380838A819B8193838283211531057D
:100EB00029F4F0935301E09352013DC0E901FB8313
:100EC000EA8349915991C40FD51FEC17FD0761F4CE
:100ED00080819181840F951F0296E901998388830F
:100EE000828193819B838A83E0E0F0E012968D916A
:100EF0009C911397009719F0FD01DC01F7CF8D91BC
:100F00009C9111979D012E5F3F4F820F931F20915F
:100F10005001309151012817390769F4309729F4AD
:100F2000109253011092520102C013821282B093A8
:100F30005101A0935001DF91CF910895A0E0B0E05E
:100F4000E4EAF7E00C949708EC01009721F4CB0158
:100F50000E947D06B4C0FC01E60FF71F9C012250E1
:100F60003109E217F30708F4A8C0D9010D911C91CB
:100F7000119706171707B0F00530110508F49BC04C
:100F8000C80104978617970708F495C00250110905
:100F9000061B170B019311936D937C93CF010E9455
:100FA000150789C05B01A01AB10A4C01800E911E81
:100FB000A0915201B0915301612C712CE12CF12CC4
:100FC000109709F446C08D919C911197A815B90509
:100FD000B1F56C0142E0C40ED11CCA14DB0478F1F7
:100FE0004C018A189B08640142E0C40ED11C129681
:100FF000BC9012971396AC91B5E0CB16D10440F09B
:10100000B282A38391828082D9016D937C9309C0BF
:101010000E5F1F4F800F911FF90191838083EB2D8D
:10102000FA2FE114F10431F0D7011396FC93EE93FB
:10103000129741C0F0935301E09352013CC06816EF
:10104000790608F43C017D0112960D90BC91A02D0B
:10105000B7CF809150019091510188169906E1F423
:1010600066167706C8F480910001909101010097FF
:1010700041F48DB79EB74091040150910501841B46
:10108000950BE817F907C8F4F0935101E09350016C
:10109000F901718360830FC0CB010E947D067C0142
:1010A000009759F0A801BE010E947108CE010E946C
:1010B0001507C70104C0CE0102C080E090E0CDB7A3
:1010C000DEB7EEE00C94B308FB01DC0104C08D91A7
:1010D0000190801921F441505040C8F7881B990BAA
:1010E0000895FB01DC0102C001900D924150504077
:1010F000D8F708956817790768F4FB01DC01E40F5D
:10110000F51FA40FB51F02C002900E92415050402F
:10111000D8F708950C947108DC0101C06D9341501B
:101120005040E0F708952F923F924F925F926F9256
:101130007F928F929F92AF92BF92CF92DF92EF9267
:10114000FF920F931F93CF93DF93CDB7DEB7CA1BE8
:10115000DB0B0FB6F894DEBF0FBECDBF09942A8813
:10116000398848885F846E847D848C849B84AA84BB
:10117000B984C884DF80EE80FD800C811B81AA8148
:10118000B981CE0FD11D0FB6F894DEBF0FBECDBF13
:10119000ED01089510E0C5E3D0E004C0FE010E9417
:0E11A00068062196C633D107C9F7F894FFCF31
:1011AE0000005401200024011E011801120100004C
:1011BE0000004E0400000000BC05000000009D056C
:1011CE0000000000BE0308090B0E08010A010C0105
:0E11DE000601000000008B0092006000680017
:00000001FF
